:020000041000EA
:1000000000B5324B212058609868022188439860DF
:10001000D860186158612E4B002199600221596106
:100020000121F02299502B49196001219960352056
:1000300000F044F80222904214D00621196600F024
:1000400034F8196E01211966002018661A6600F04E
:100050002CF8196E196E196E052000F02FF8012189
:100060000842F9D1002199601B49196000215960AB
:100070001A491B48016001219960EB211966A021F2
:10008000196600F012F800219960164914480160C1
:100090000121996001BC002800D000471248134993
:1000A000086003C880F30888084703B5996A0420EC
:1000B0000142FBD001200142F8D103BD02B5186610
:1000C0001866FFF7F2FF186E186E02BD00000240BE
:1000D000000000180000070000035F00212200005C
:1000E000F4000018222000A00001001008ED00E03C
:1000F00000000000000000000000000074B24E7A12
:1001000000200420F7010010C3010010C5010010F9
:10011000C1010010C1010010C1010010C101001097
:10012000C1010010C1010010C1010010C701001081
:10013000C1010010C1010010C9010010CB01001065
:10014000CD010010CD010010CD010010CD01001037
:10015000CD010010CD010010CD010010CD01001027
:10016000CD010010CD010010CD010010CD01001017
:10017000CD010010CD010010CD010010CD01001007
:10018000CD010010CD010010CD010010CD010010F7
:10019000CD010010CD010010CD010010CD010010E7
:1001A000CD010010CD010010CD010010CD010010D7
:1001B000CD010010CD010010CD010010CD010010C7
:1001C00000BE00BE00BE00BE00BE00BE00F04BF888
:1001D000103800BEF2EB887190F10110BCF10110F3
:1001E0003402001090A31AE700202149086006C8D5
:1001F00081F3088810471F48006800282FD10DA4FC
:100200000ECC002902D000F012F8F9E71A491B4A77
:10021000002000E001C19142FCD1194988471949E9
:1002200088471949884700BEFDE701C901C29A42C3
:10023000FBD37047BCF10110C0000020D016002095
:10024000DC0702100000042000000420DC0702107C
:1002500000100420001004200000000070470B482C
:1002600006F0B2FD0047EFF30580C0B27047000012
:1002700008ED00E0000000D0E0160020EC26002091
:1002800041520010790B00105553001057560000D2
:1002900006005250ABB360538CC30110060052509D
:1002A000861C03029CC30110060052505422A29DDA
:1002B000B0C3011005005250DE65F468DC0702107F
:1002C000F8B5C0460448054B10B5834203D0044B33
:1002D000002B00D0984710BDD0160020D01600206B
:1002E0000000000006480749091A8B10C90FC918F9
:1002F00010B5491003D0044B002B00D0984710BD17
:10030000D0160020D01600200000000010B5074CC9
:100310002378002B09D1FFF7D5FF054B002B02D026
:10032000044800E000BF0123237010BD081800201E
:1003300000000000088E0110054B10B5002B03D003
:100340000449054800E000BFFFF7CCFF10BDC046E0
:10035000000000000C180020088E0110014B002244
:100360001A7070471624002010B5002409E06300BD
:100370001B199A00044B9B189968044807F066FF04
:100380000134142CF3D910BDE4980110088E01102B
:1003900070B50400374B1B5C6022934305D10D28D8
:1003A00003D0082801D07F2862D1200007F0C2FEC8
:1003B00007F00CFF0D2C0DD0082C4FD07F2C4DD00A
:1003C0002D4B1B68FE2B53D82C4AD45401332A4A98
:1003D00013604DE00A2007F0ADFE07F0F7FE802124
:1003E0004900264815F052FB002814D02449234820
:1003F00015F062FB051E1DD00024142C18D86300D4
:100400001B199B001F4A9858290014F0ABFA0028CA
:1004100007D00134F1E71C4807F018FF07F0D6FEBB
:1004200026E063001B199B00164AD3185B689847A7
:10043000152C0ED0104B00221A6080325200002181
:100440000E4807F057FD114807F000FF07F0BEFE09
:100450000EE029000E4807F0F9FEEBE7064B1B689B
:10046000002B05D0013B044A1360044A0021D154FB
:1004700070BDC046A9DD0110AC230020101E002075
:10048000309D0110E4980110108E01102C8E011087
:10049000148E011070B505000024012C1AD8A30099
:1004A0001B19DB001B1B1B010B4AD3189A2292005D
:1004B000944663441868290014F054FA002801D0C7
:1004C0000134EAE7A0000019C000001B0001024C43
:1004D000001900E0002070BD6006002030B5114C0E
:1004E000A54405008024640022000100684615F040
:1004F00033FA40AA2100684612F038F8041E03D1EE
:1005000089239B009D4430BD2900074807F09EFECB
:10051000200011F0CFFF020023000449044807F037
:1005200095FEEDE7DCFDFFFF308E0110D89801103D
:10053000548E011010B5024803F004FC10BDC046F3
:10054000688E011010B5044C20000FF0FAFA20005C
:1005500001F08CFF10BDC046688E011010B5064832
:10056000FFF7BCFFFFF7EEFFFFF7E4FF002007F007
:100570007FFE431CF3D010BD688E011010B50649F4
:10058000002015F099FA002802D0FFF7A7FF10BD50
:10059000024807F02BFEFAE7309D0110708E011023
:1005A00010B50B49002015F087FA002804D00FF091
:1005B000C8FA041E04D110BD064807F017FEFAE77A
:1005C00011F078FF01002200034807F03FFEF2E738
:1005D000309D0110708E0110848E011070B5154988
:1005E000002015F069FA041E18D01249002015F0F9
:1005F00063FA002816D00022002115F019FC05002E
:100600000C49002015F058FA00280FD012F01CFEFB
:1006100002002900200001F0DBFB70BD064807F056
:10062000E5FDFAE7044807F0E1FDF6E7024807F0C8
:10063000DDFDF2E7309D0110708E011010B51B4CEE
:10064000A5441B49002015F037FA011E0DD00122E8
:1006500040A80DF06FFE041E0FD011F02BFF01001B
:100660002200144807F0F2FD14E0134807F0BEFD25
:1006700010E06946114807F0E9FD802140AA4900D1
:10068000684610F0CFFC0028F3D140A80EF01DFC06
:10069000041E03D1D8239B009D4410BD11F00AFF16
:1006A00001002200034807F0D1FDF3E7A0FCFFFFA3
:1006B000309D011048DC0110708E01109C8E0110DD
:1006C00010B50B49002015F0F7F9002804D00EF002
:1006D00025FC041E04D110BD064807F087FDFAE78B
:1006E00011F0E8FE01002200034807F0AFFDF2E739
:1006F000309D0110708E0110848E011010B582B0F3
:100700001749002015F0D8F9041E1AD02000FFF771
:10071000C1FE0090002816D06A4601A920000FF003
:1007200069F8041E14D1009BDA6A911E5A8951435C
:10073000019B5A43520849080A4807F087FD02B056
:1007400010BD094CE2E72100084807F07FFDF6E7FD
:1007500011F0B0FE01002200054807F077FDEEE73A
:10076000309D0110E48E0110A08E0110A48E0110A6
:10077000C88E011010B50A49002015F09DF9002817
:1007800004D00EF0B9FB041E02D110BD0548F8E7F5
:1007900011F090FE01002200034807F057FDF4E736
:1007A000309D0110A08E0110188F011010B50B495B
:1007B000002015F081F9011E06D0002200200DF066
:1007C0008BFD041E02D110BD0549F6E711F072FE43
:1007D00001002200034807F039FDF4E7309D0110C5
:1007E0000C8E0110188F011010B51049002015F063
:1007F00063F9041E0BD02000FFF74CFE002808D040
:10080000012221000DF068FD041E07D110BD084C27
:10081000F1E72100074807F019FDF7E711F04AFE5C
:1008200001002200044807F011FDEFE7309D0110A0
:10083000A08E0110A48E0110188F011010B512495E
:10084000002015F039F9041E0DD0FFF723FE002813
:100850000DD08023DB000022002120000FF048FB98
:10086000041E09D110BD094807F0C0FCFAE72100B9
:10087000074807F0EBFCF5E711F01CFE0100220031
:10088000044807F0E3FCEDE7309D0110708E011085
:10089000A48E0110848E011010B50749002015F0B8
:1008A0000BF9002806D00022002115F0C1FA01F052
:1008B0004DF810BD0020FAE7309D011010B5A2B030
:1008C000002302937C22002103A807F013FB0020E1
:1008D00012F0A0FA00900191684613F037F8040076
:1008E00003000E4A802102A815F024F800280ED03B
:1008F00002A807F07BFC2300094A802102A815F01A
:1009000019F802A9074807F0A1FC22B010BD064B58
:10091000064A6E21064812F01FFAE9E7308F0110EF
:10092000888F01108C8F0110FCEC0110CC98011005
:10093000348F0110F0B5C64600B582B030490020B2
:1009400015F0BAF8002843D012F07EFC04002C49C0
:10095000002015F0B1F800283ED012F075FC05001B
:100960002749002015F0A8F8002839D012F06CFCB7
:10097000FA23DB00C7182249002015F09DF8002853
:1009800032D012F061FC06001D49002015F094F8E9
:1009900000282DD012F058FC80461949002015F08F
:1009A0008BF8002828D012F04FFC6B461F809D70FA
:1009B000DC7000236A4613716B46567142469A7189
:1009C000D871684612F080FA02B004BC9046F0BDBF
:1009D0000C4807F00BFCF7E70A4807F007FCF3E7C1
:1009E000084807F003FCEFE7064807F0FFFBEBE7DA
:1009F000044807F0FBFBE7E7024807F0F7FBE3E7F3
:100A0000309D0110708E011070B5134B01221A70C9
:100A100004F0A2F802000B1E11DB104C0025121985
:100A20006B41994202D804D1904202D9012252422C
:100A3000D317002B09DB0A490A604B6070BD094BD4
:100A4000094A3D21094804F089FC064B064A3D212C
:100A5000064804F083FCC0461624002040420F00E4
:100A6000E8170020A08F0110B4980110BC8F01106E
:100A700010B5304CA544040000236093FB220021F4
:100A800061A807F037FA2378002B06D1FF2160A870
:100A90000EF0A2FA041E1FD160AC2100264807F018
:100AA000D5FB582200214AA807F024FA90225200D0
:100AB000002102A807F01EFA204B220002A94AA832
:100AC0000EF056FE041E1DD011F0F4FC01002200B1
:100AD0001B4807F0BBFB28E011F0ECFC01002200F2
:100AE000184807F0B3FB20E0174A029B039C0093D1
:100AF000019422216944154807F0A8FB02A94AA8DD
:100B00000EF01DFE00280DD102AB9B7E002B09D0FC
:100B100002AB1B7BDA06E7D4DB0701D50C4AE4E71E
:100B20000C4AE2E74AA80EF0BBFDA0239B009D44BF
:100B300010BDC04680FDFFFF489001108CA0011041
:100B4000609001102C900110C8E101107C90011000
:100B50001C9001100C90011010B50549002014F0F4
:100B6000ABFF002802D0FFF783FF10BD0148FAE772
:100B7000309D01100C8E011070B507F073FB12F060
:100B800057F912F047FB11F09DFB264807F05EFB7A
:100B9000254807F05BFB07F019FB03E0234B1B78AC
:100BA000002B08D1FA20800007F062FB431CF5D02F
:100BB000FFF7EEFBF2E703F0CFFF02000B1E24DB92
:100BC0001B4908684968801A99410029EADA00F04F
:100BD00009F9002802D1154B00221A70144B1A682B
:100BE0005B6810001900134C002512196B419942E3
:100BF00002D804D1904202D901225242D317002BCD
:100C000009DB0B490A604B60CCE70B4B0B4A3D21DB
:100C10000B4804F0A3FB084B084A3D21084804F0A8
:100C20009DFBC046949001102C8E011016240020CC
:100C3000E817002040420F00A08F0110B498011067
:100C4000BC8F011070B5041E0CD0226963692000AE
:100C50000EF05CFA051E0CD1A36BE26B134311D0AE
:100C6000012070BD0E4B0F4A15210F4812F074F889
:100C7000EBE711F01FFC01002A000C4807F0E6FA30
:100C80000020EEE70A49200010F08AFA002801DB74
:100C90000120E6E7074807F0A9FA0020E1E7C0468F
:100CA000E0990110309B0110E499011064DC0110FF
:100CB000349A0110549A011070B5A0B0041E4AD0A5
:100CC000002012F0A7F81E901F9115A91EA812F07F
:100CD00047FE394B1A6805929A8805AB9A8018002E
:100CE0000EF02FFF051E01D008283BD11A9B03935D
:100CF000199A32498C466344189901910132009245
:100D00002F4A3B21112002ADAC46604406F030F87A
:100D1000461D031D3E2B2ED805A80EF012FF051E02
:100D200001D008282ED14021891B05AB981915AB9D
:100D3000244A14F0FFFD00282DD0322205A92000FE
:100D40000DF0F8FA051E01D008282BD12000FFF77E
:100D500079FF20B070BD1C4B1C4A27211C4811F0A4
:100D6000FBFFADE711F0A6FB01002A00194807F0D0
:100D70006DFA0020EDE7184B144A3821144811F0A1
:100D8000EBFFC9E711F096FB01002A00114807F0BC
:100D90005DFA0020DDE7114B0C4A3F210C4811F0B1
:100DA000DBFFCAE711F086FB02002B0005A90C4807
:100DB00007F04CFA0020CCE7649A01106C070000A1
:100DC000A89A0110B89A0110E0990110409B0110F7
:100DD000E4990110909A01106C9A0110C09A0110C8
:100DE000C49A011070B53D4CA5442EA8FFF764FFCE
:100DF000041E04D12000C6239B009D4470BD00202A
:100E000012F008F80C900D9103A90CA812F0A8FD9F
:100E10000300334A80210EA814F08CFD051E49D032
:100E2000304B1A688023DB015340E022D20113408B
:100E30002D4A13602D4B04221A602A4B1B68DB05D8
:100E4000FBD5284B58680004000C06F059FF2849D0
:100E500006F04DFF274906F02AFF274906F031FF2B
:100E6000011C264806F023FF8026761B0EAB9C460D
:100E7000654406F067FF00900191214A3100280087
:100E800005F076FF01387E281BD80EAA1D492EA832
:100E900010F086F900281BDB2EA80EF016F8051EB0
:100EA000A8D011F007FB01002A00174807F0CEF97F
:100EB00000249FE7154B164A5821164811F04CFFA5
:100EC000AEE7154B124A6721124811F045FFDCE7E7
:100ED000124807F08BF900248CE7C046E8FCFFFFBE
:100EE000E09A011000C0044000D0044000E004403B
:100EF0003333533A6ABC343F2D93E13A0000D84172
:100F000070A201109C8E0110189B0110FCEC0110C6
:100F10004C9B0110E4990110E89A0110089B011004
:100F200070B5C84CA544C84807F060F90023DF93AA
:100F3000EF220021E0A806F0DDFFF321DFA80EF08C
:100F40004BF8041E1AD1C14807F080F90322C049AA
:100F500046A80DF0EFF90500041E17D0BD4807F0B4
:100F600045F9BD4B1B68986812F046FA002C01D079
:100F7000042C0DD1042C14D0002597E011F09AFA1E
:100F800001002200B54807F061F94CE1B448E6E7FA
:100F9000280011F08FFA01002A00B24807F056F934
:100FA00041E1B14807F052F9AB4B1B68986812F069
:100FB00023FA0B22A64946A80DF0BCF90400051E31
:100FC0000BD0A44807F012F9002D08D1A24B1B68E2
:100FD000986812F011FA00240BE0A148F2E7200013
:100FE00011F068FA010022009E4807F02FF9EDE7A2
:100FF0000134092C1CDC0A2221009C4807F026F948
:10100000954B1B68986812F0F7F92200984946A89A
:1010100010F0C6F80028EBDA8E4807F0E7F8280051
:1010200011F048FA01002A00924807F00FF9DFE7B3
:101030000A220A21904807F009F9874B1B68986833
:1010400012F0DAF98D4807F001F90022002346A8D2
:101050000EF05CF80400051E0AD07E4807F0C6F8C2
:10106000002D07D17C4B1B68986812F0C5F983E707
:101070007B48F3E7200011F01DFA010022008048B0
:1010800007F0E4F8EEE77F4807F0B0F81DE0441CF5
:10109000F317320046A80EF039F82200744946A82A
:1010A00010F07EF846A80DF051FE0135092D1BDC2D
:1010B0000A222900744807F0C9F8549E46AA0A215A
:1010C00003A80FF0AFFF0028DDD003AC0A2202A96D
:1010D000200014F0EDFD029BA342E6D01B78002B0C
:1010E000D5D00A2BD3D0E0E70A220A21674807F0BF
:1010F000ADF8594B1B68986812F07EF9644807F008
:10110000A5F846A80DF0E1FE0400051E3DD05148AB
:1011100007F06CF8002D3AD14F4B1B68986812F01D
:101120006BF95C48FFF7A4FC5B480DF0F7FE041E6A
:1011300036D15848FFF79CFC00230693FB22002180
:1011400007A806F0D7FE424B0093DFAB534AFF21BE
:1011500006A805F00DFE06A9514807F077F8012210
:1011600006A946A80DF0E6F80400051E20D039486F
:1011700007F03CF8002D1DD1374B1B68986812F022
:101180003BF9484807F032F821E03548C0E7200035
:1011900011F090F901002200434807F057F8BBE72F
:1011A00011F088F901002200404807F04FF8C0E72D
:1011B0002B48DDE7200011F07DF9010022002948CD
:1011C00007F044F8D8E702AB187806F0B3FF549A5A
:1011D00055984A9B4B999A420FD003AB012202A922
:1011E00046A80DF055FA041EEDD011F063F9010088
:1011F00022002F4807F02AF8E9E78842EDD106A936
:101200002C4807F023F846A80DF05FFE0400051EE9
:101210000DD0104806F0EAFF002D0AD10E4B1B68D6
:10122000986812F0E9F88E23DB009D4470BD0C48ED
:10123000F0E7200011F03EF9010022001A4807F003
:1012400005F8EBE790FBFFFF689B0110789B01100E
:10125000949B0110609B0110A00C00202C900110A9
:101260005C9B011048DC0110A09B0110C89B011081
:10127000E89B0110F09B01100C9C01102C9C0110AC
:1012800064DC0110649C0110409C0110809C0110E2
:10129000A89C01100C8E0110C49C0110E09C011050
:1012A000E89C0110FC9C0110189B0110C89C0110C7
:1012B000089D0110209D011010B5002809D00D4B8C
:1012C000186000241F2C04D80020FFF7F5FF01341C
:1012D000F8E7084B1B68DA0707D55B08064A534056
:1012E000044A1360034B186810BD5B08014A136081
:1012F000F8E7C046B023002003002080F0B5DE46AA
:1013000057464E464546E0B589B0070003911400A4
:101310001D00059380460292009313000A0001000D
:10132000C64806F093FF82239B009D4203D301230E
:101330009A469B46CDE1C24806F058FF012009B00D
:101340003CBC90469946A246AB46F0BDBD4806F06F
:101350004DFF0220F3E7BB4806F048FF0320EEE70D
:10136000B94806F043FF0420E9E7B64806F03EFF1F
:10137000F7E1B64806F03AFFFDE10023029A390092
:10138000B34806F063FF01230093002200232100ED
:10139000404611F058F800282ED1AE4806F026FF3E
:1013A0003900AD4806F052FF00220021404611F0FE
:1013B00061F8002825D1A74806F018FF8022920086
:1013C0000021200006F096FD0023029A3900A34870
:1013D00006F03CFF01230093002200232100404639
:1013E00011F01AF8002811D19A4806F0FFFE504675
:1013F000FFF762FF00250FE0924806F0F7FE062097
:101400009DE7904806F0F2FE072098E78D4806F029
:10141000EDFE082093E7013580239B009D4206D214
:10142000665D0020FFF748FFC0B28642F3D08023FC
:101430009B009D421CD18A4806F0D8FE53460133DA
:101440000493884806F0D2FE059A530A9946A023D1
:101450001B019A4211D24B46012B00D899E0049807
:10146000FFF72AFF002523004C46B9461F000CE079
:101470007D4806F0BBFE0A2061E704239946EEE7AB
:101480000020FFF719FF785501356602AE42F7D804
:101490003B004F46A1461C004B4600930523029A91
:1014A0003900724806F0D2FE4B4600930522002315
:1014B0002100404610F0C7FF002831D1654806F0F2
:1014C00095FE3900644806F0C1FE00220021404626
:1014D00010F0D0FF002828D15E4806F087FE3200C9
:1014E0000021200006F006FD4B4600930523029ADA
:1014F00039005F4806F0AAFE4B4600930522002300
:101500002100404610F088FF002813D1514806F012
:101510006DFE0498FFF7D0FE0025B94627000FE0C6
:10152000484806F063FE0B2009E7464806F05EFED9
:101530000C2004E7434806F059FE0D20FFE6013574
:10154000AE4206D97C5D0020FFF7B6FEC0B28442F1
:10155000F5D03C004F46AE4216D1414806F046FE5B
:1015600053469E1C434806F041FE3000FFF7A4FEA0
:10157000002580239B009D420FD20020FFF79CFE98
:10158000EB1CE0540135F4E7374806F02FFE0E203F
:10159000D5E6394806F02AFEE2E7E51CFC3BFF3BB6
:1015A0002A0039002A4806F051FE01230093052243
:1015B00000232900404610F046FF00282FD125487F
:1015C00006F014FE3900244806F040FE00220021F7
:1015D000404610F04FFF002826D11E4806F006FEB8
:1015E000651D802292000021280006F083FC05235F
:1015F0002A003900194806F029FE0123009305222C
:1016000000232900404610F007FF002811D111489F
:1016100006F0ECFD3000FFF74FFE00252FE00948F3
:1016200006F0E4FD0F208AE6064806F0DFFD1020F4
:1016300085E6044806F0DAFD112080E6349D0110AD
:101640005C9D0110C49D0110209E0110E89E0110B8
:10165000349F0110D09D0110549F0110789F0110FC
:10166000989F0110AC9F0110D49F011000A00110A1
:1016700020A0011050A0011040A0011001358023CE
:101680009B009D4207D263195E790020FFF714FE8C
:10169000C0B28642F2D080239B009D427DD1964805
:1016A00006F0A4FD5346DE1C944806F09FFD944BC3
:1016B000079A9A4276D8934806F098FD04239C46F0
:1016C000E244039A5946904806F0C0FD01239C4627
:1016D000E344039B9B4500D90CE1039A59468B4890
:1016E00006F0B4FD39008A4806F0B0FD404610F01F
:1016F00088FEC30700D529E6864806F077FD8648B0
:1017000006F074FD07AA3900844806F09FFD002307
:10171000079307AA0121404610F0ACFE002800D034
:1017200019E67C4806F062FD079A7F2A00D817E682
:1017300039007B4806F08AFD7A4806F057FD06AA74
:101740003900794806F082FD0023069306AA03219A
:10175000404610F08FFE051E00D006E66D4806F0EC
:1017600045FD002D03D0069B012B00D801E606990C
:101770006E4806F06BFD6E4806F038FD5046FFF7E8
:101780009BFD002580239B009D4200D3F5E50020B2
:10179000FFF792FD60550135F4E7664806F026FD37
:1017A0001220CCE53000FFF787FD002504E0002083
:1017B000FFF782FD605501358023DB009D42F6D3A3
:1017C0000623029A39005C4806F040FD012300938D
:1017D000062200232100404610F035FE002857D194
:1017E0004C4806F003FD80239B00E518534B2A006C
:1017F0003900514806F02AFD012300934F4A002387
:101800002900404610F01FFE002846D1414806F04E
:10181000EDFC39004A4806F019FD0022002140463F
:1018200010F028FE00283DD13A4806F0DFFC802267
:10183000D2000021200006F05DFB0623029A390049
:10184000404806F003FD01230093062200232100F7
:10185000404610F0E1FD002829D12E4806F0C6FCD4
:10186000364B2A003900374806F0F0FC012300937C
:10187000324A00232900404610F0CEFD00281BD13B
:10188000244806F0B3FC3000FFF716FD002519E0F0
:101890002D4806F0ABFC132051E52B4806F0A6FCC2
:1018A00014204CE5284806F0A1FC152047E5264801
:1018B00006F09CFC162042E5234806F097FC172012
:1018C0003DE50135665D0020FFF7F6FCC0B28642BB
:1018D00003D18023DB009D42F3D38023DB009D42B4
:1018E00003D1054806F082FCE8E6124806F07EFCCB
:1018F000182024E5002022E5989F011090A00110F7
:101900007F00800040A00110ACA00110889D011054
:10191000B09D0110D09D0110D89D0110F49D0110C3
:101920004C9E0110789E0110949E0110BC9E0110E7
:10193000109F0110D49F0110349F011006008000F9
:10194000549F0110789F0110C49D011010B50C4CDC
:10195000A5448023C0B21B016A460321FFF7CEFCD9
:10196000041E08D00100074806F070FC2000802308
:101970001B019D4410BD044806F038FCF6E7C04644
:1019800000F8FFFFD8A001103CA1011010B50028FD
:1019900009D00D4B186000241F2C04D80020FFF73D
:1019A000F5FF0134F8E7084B1B68DA0707D55B0839
:1019B000064A5340044A1360034B186810BD5B0885
:1019C000014A1360F8E7C046B423002003002080DA
:1019D000F0B5DE4657464E464546E0B583B08246F2
:1019E000884614000D0080239B01994200D91D00F8
:1019F0002900404605F03CFA00291CD1280006F0D9
:101A00005BFA061E1ED02000FFF7C0FF5D4950465E
:101A100010F07EFE814600281BD04B46002B28D0BC
:101A2000594806F0E3FB03F097F800900191002974
:101A300026DB002754E0554B554A8621554811F0C6
:101A40008BF9DBE7544B524A8821524811F084F954
:101A5000D9E711F005FC006813F02CF9040011F02F
:101A6000FFFB03685B42220051464C4806F0EEFB48
:101A7000D3E74B4B464A9021464811F06DF9CFE72A
:101A8000484B494A3D21494803F068FC11F0E8FB06
:101A9000006813F00FF9834611F0E2FB03685B4224
:101AA0005A465146424806F0D1FB27E0414B384A9E
:101AB0009A21384811F050F922E0B90009193E483E
:101AC00006F0C4FB0134AB08A34208D90020FFF79D
:101AD0005DFF0200A300F3589842F3D0EDE7013711
:101AE0002900404605F0C4F9B8420BD94B46012203
:101AF0002900300010F08CFE041EC7DD012CD5D16A
:101B00000024E0E7300006F0E9F9484610F027FE2F
:101B100003F022F802000B1E2DDB00980199121A27
:101B20008B411000190005F0CDFC0022234B05F07D
:101B3000F2FB05F0D3FC06F005F904000D000200ED
:101B40000B001F4806F082FB404605F06FFC2200A8
:101B50002B0005F0E0FB00221A4B05F0FAFB020017
:101B60000B00194806F072FB03B03CBC9046994646
:101B7000A246AB46F0BD0B4B0B4A3D210B4803F090
:101B8000EDFBC046F0EB0110FCA101106CA10110AF
:101B900000A3011080A10110D8A10110E0A1011043
:101BA000F4A10110A08F0110D8A20110BC8F011068
:101BB00008A201101CA2011028A2011080842E414D
:101BC00060A201100000503F78A20110F0B5DE467F
:101BD00057464E464546E0B585B0834689461400D3
:101BE0000E0080239B01994200D91E003100484617
:101BF00005F03EF9002926D1300006F05DF9071EF8
:101C000028D02000FFF7C2FE604806F0EFFA02F08D
:101C1000A3FF00900191002923DB03A9584610F08F
:101C2000B5FD002804D1039B002B01D099451ED29D
:101C30005749584610F06CFD82465346002B20D081
:101C4000002398463AE0534B534A4721534811F03A
:101C500083F8D1E7524B504A4921504811F07CF8A3
:101C6000CFE7504B504A3D21504803F077FB504995
:101C7000584610F04DFD8246002200230DF046FA32
:101C8000DBE711F0EDFA006813F014F8040011F02E
:101C9000E7FA036822005946464806F0D7FA0020C2
:101CA00067E0534601223100380010F097FD041E12
:101CB00016DD012C23D101239C46E0443100484627
:101CC00005F0D6F8404521D90024B308A342E8D94D
:101CD000A5007D190020FFF759FE28600134F4E7C4
:101CE00011F0BEFA006812F0E5FF050011F0B8FA35
:101CF00003682A005946304806F0A8FAD9E72F4B66
:101D0000254A6F21254811F027F8D4E7380006F05E
:101D1000E5F8504610F023FD02F01EFF02000B1EF6
:101D20002EDB00980199121A8B411000190005F062
:101D3000C9FB0022224B05F0EEFA05F0CFFB06F0BE
:101D400001F804000D0002000B001E4806F07EFAA8
:101D5000484605F06BFB22002B0005F0DCFA002260
:101D6000194B05F0F6FA02000B00184806F06EFA5F
:101D7000012005B03CBC90469946A246AB46F0BD5A
:101D8000084B094A3D21094803F0E8FA94A20110E2
:101D9000A4A201106CA10110F0A2011080A10110F9
:101DA000D8A10110A08F0110D8A20110BC8F011082
:101DB000A0A20110A8A20110C0A201101CA2011033
:101DC00080842E4160A201100000503F78A20110D3
:101DD00070B504000D001600FFF7F8FE002800D1D2
:101DE00070BD320029002000FFF7F2FDF8E7000087
:101DF000F0B5C64600B5040002003949394806F07E
:101E000025FAC82006F058F80700FA2006F054F822
:101E10008046002F09D04346002B0DD0200010F043
:101E200011FD00280FDB012531E02F4B2F4AAC219B
:101E30002F4810F091FFEEE72E4B2C4AAD212C4895
:101E400010F08AFFEAE72C4B284AB121284810F00D
:101E500083FFE8E7294B254AC221254810F07CFF83
:101E60002CE0274B214ACE21214810F075FF013488
:101E7000A54208DD33000122C821380010F0AEFC75
:101E80000128F4D0EDE7300010F069FC0135052D94
:101E90001CDC2B001B4AFA21404604F069FFC821D4
:101EA000380010F0E1FC3A004146174806F0CEF940
:101EB0001649404610F02CFC061ECBD029003031CC
:101EC000C822380006F016F80024D1E7380006F0E2
:101ED00005F8404606F002F804BC9046F0BDC04646
:101EE00080A6011010A3011024A3011004A7011063
:101EF00030A3011094A30110A0A30110F4A10110BC
:101F0000DCA30110B0A30110C0A30110A4A2011012
:101F1000F8B5CE46474680B54449454806F096F99F
:101F2000C82005F0C9FF0500FA2005F0C5FF81466D
:101F3000002D04D04B46002B08D0012643E03D4B3A
:101F40003D4AE7213D4810F007FFF3E73C4B3A4A92
:101F5000E8213A4810F000FFEFE73A4B364AFA2101
:101F6000364810F0F9FE55E08221374B324A4900DD
:101F7000324810F0F1FE20E00C21344B2E4AFF31A4
:101F80002E4810F0E9FE0134C72C06D82A5DFF2345
:101F9000334030339A42F6D0EEE70137BE420EDDD1
:101FA000C8220021280005F0A5FF43460122C821D0
:101FB000280010F02DFC0128D6D10024E4E740468B
:101FC00010F0CDFB0136052E26DC3300204AFA2125
:101FD000484604F0CDFEC821280010F045FC2A0038
:101FE00049461C4806F032F91B49484610F090FB60
:101FF000804611F035F9006812F05CFE040011F023
:102000002FF9036822004946144806F01FF9434699
:10201000002BA2D00027C1E7280005F05FFF48464B
:1020200005F05CFF0CBC90469946F8BDA4A60110D3
:10203000F0A3011024A3011028A7011030A3011060
:1020400094A30110F4A1011030A4011040A40110C8
:10205000B0A30110F8A30110F0EB011014A40110BB
:10206000F0B5D6464F464646C0B582B0814602001E
:102070007E497F4806F0EAF8C82005F01DFF0700FA
:10208000FA2005F019FF8046002F50D04346002B60
:1020900055D0C821380010F0E7FB3900754806F02C
:1020A000D5F8754810F013FC002850D1724810F094
:1020B000C9FB002853D1C821380010F0D5FB3900E6
:1020C0006C4806F0C3F86D4810F001FC00285BD1A5
:1020D0006A4810F0B7FB824600285DD1C82138005D
:1020E00010F0C2FB3900634806F0B0F8644B00936F
:1020F0004B46644AFA21404604F03AFE4146380015
:1021000012F030FC00284FD15C4B5F4AFA21404668
:1021100004F02EFE3A0041465C4806F097F85C4910
:10212000404610F0F5FA061E51D000255FE09321DD
:10213000584B594A4900594810F00EFEA6E728218D
:10214000574B554AFF31554810F006FEA1E73021A4
:10215000544B514AFF31514810F0FEFDA6E711F0F3
:102160007FF8006812F0A6FD040011F079F802680B
:1021700021004D4806F06AF836214A4B464AFF31A5
:10218000464810F0E9FD96E73E21464B424AFF31B2
:10219000424810F0E1FD9BE7A121424B3E4A490035
:1021A0003E4810F0D9FD99E7424639003F4806F015
:1021B0004DF84146380012F0D5FB0028A4D0A521E7
:1021C0003B4B354A4900354810F0C6FD9CE7562187
:1021D000384B314AFF31314810F0BEFDA5E7AE2142
:1021E000354B2D4A49002D4810F0B6FD0135632DC1
:1021F00008DC2C0030343100200010F07EFB8442DB
:10220000F4D0ECE7300010F0AAFA2C4810F01AFBDA
:102210005346002B19D1C821380010F025FB390096
:10222000274806F013F84946380012F09BFB0028B7
:1022300013D1380005F052FE404605F04FFE02B0C3
:102240001CBC90469946A246F0BDB221154B124ADD
:102250004900124810F080FDDDE76A21194B0E4A53
:10226000FF310E4810F078FDE3E7C046C4A6011028
:1022700010A3011078A401108CA40110D4A40110A3
:10228000E4A40110DCA4011038A5011040A5011040
:10229000A4A2011024A3011048A7011030A301102B
:1022A00094A3011094A40110B8A40110F0A401108B
:1022B00010A50110F4A1011058A5011080A501106E
:1022C00088A50110A4A50110F0B5CE46474680B5FB
:1022D00083B0040002005149514805F0B7FFC820FF
:1022E00005F0EAFD8146FA2005F0E6FD80464B4602
:1022F000002B32D04346002B37D04A4B00932300AB
:10230000494AFA21404604F033FD404610F09AFA5B
:10231000002832D1C821484610F0A6FA4946434861
:1023200005F094FF4146484612F01CFB00282CD1D2
:102330004146484612F05AFB3D4A3E49404604F0A9
:1023400003FD4A4641463C4805F080FF3B49404674
:1023500010F0DEF90700002527E07C21384B394AD0
:10236000FF31394810F0F8FCC4E7BE21374B354A3D
:102370004900354810F0F0FCBFE78221344B314A68
:10238000FF31314810F0E8FCC4E7C321314B2D4A3E
:1023900049002D4810F0E0FCCAE7320001002E4849
:1023A00005F054FFA6420BD10135632D10DC380037
:1023B00010F0C2FA04002E0030368642F2D0ECE76C
:1023C000CE21264B1F4A49001F4810F0C5FCEBE701
:1023D000380010F0B1FA431C18D1380010F0BFF9E2
:1023E0001F4810F02FFAC821484610F03DFA494620
:1023F0001C4805F02BFF484605F070FD404605F0EF
:102400006DFD03B00CBC90469946F0BDA221164B61
:102410000C4AFF310C4810F09FFCDEE7E4A60110E7
:1024200010A30110E4A40110DCA40110F0A5011018
:10243000D4A4011038A5011008A60110F0EB01107A
:1024400024A3011068A7011030A3011094A3011068
:10245000CCA5011010A5011020A6011058A501104F
:1024600080A5011088A501104CA6011010B504002C
:1024700002000949094805F0E9FE200010F027FA9A
:102480002000FFF7B5FCFFF743FD2000FFF7E8FD54
:102490002000FFF719FF10BD60A6011010A3011066
:1024A00030B58BB0040002005449554805F0CEFE0B
:1024B00002A9544B0A0023CB23C223CB23C2524B85
:1024C00001930622002108A805F014FD200010F059
:1024D000B9F9002818D1C020400005F0EDFC051E18
:1024E0001AD0002D66D0C02252000021280005F02D
:1024F00001FD2900454810F0C9FA00281BD028002A
:102500000DF0CEF800242CE08521414B414A890092
:10251000414810F021FCDEE7404B3E4A40493E482E
:1025200010F01AFCDDE708AB01221A55280010F064
:1025300021FB0028E3D10024052CF7D8BC235B0045
:10254000E958A30002AA985812F00CFA0028EAD021
:102550000134F1E7334B2F4A33492F4810F0FCFB8D
:102560000134052C04D808AB1B5D012BF8D0F1E732
:10257000C02252000021280005F0BCFC06220021E8
:1025800008A805F0B7FC2900284810F07FFA0028B9
:1025900007D10024002C0FD0280010F0EBFA0028FF
:1025A000F7D028000DF07CF80024002C17D028006C
:1025B00005F094FC0BB030BDBC235B00E958A300D0
:1025C0000AAA94466344243B186812F0CBF9002809
:1025D00001D00134DEE708AB01221A55DCE708AB75
:1025E0001B5D012B01D10134DFE796210D4B094A18
:1025F0008900094810F0B0FBF5E7C046B8B30110F8
:1026000010A301104CB30110D4A401100C8E0110C2
:10261000CCA5011080B40110C4A7011024A801109A
:102620001902000034A80110390200008CA4011026
:1026300030B583B004000200CA49CB4805F006FE5D
:10264000200010F0FFF8002839D1C84C200010F00D
:10265000A3F9200010F0A0F9431C37D1002010F09E
:102660007EF8431C39D1FA24A400C04D2100280073
:1026700010F0A6FA10F073F801A9280010F086F8FF
:10268000019BA34230D1BA49B84810F041F8051E69
:1026900031D06A69FA239B002969994201D1002A45
:1026A00005D0B44BB44AB549B54810F055FB2900E4
:1026B000FF2010F022F9FF2824D0002430E0B14B95
:1026C000AD4AB149AE4810F047FBBEE7AF4BAA4A4E
:1026D000AF49AB4810F040FBC0E7AE4BA64AAE494D
:1026E000A74810F039FBBEE7AC4BA34AAC49A4485D
:1026F00010F032FBC7E7AB4B9F4AAB49A04810F044
:102700002BFBC6E7A94B9C4AA9499D4810F024FB26
:10271000D3E7A84B984AA849994810F01DFB01340B
:10272000FA239B009C4205DA280010F005F90028E6
:10273000F5D0EEE7280010F0FFF8431C1ED1EA6B3D
:102740006B69A96B2869814201D19A4206D0A62102
:102750009A4B894A89008A4810F0FEFA280010F046
:10276000BFFA431C11D128000FF0F9FF94497F48AC
:102770000FF0CEFF051E10D000241CE0914B7E4AC6
:1027800091497F4810F0E8FAD9E7A7218F4B7A4AA0
:1027900089007B4810F0E0FAE5E7824B764A8C49E5
:1027A000774810F0D9FAE7E78A4B734A8A497448A8
:1027B00010F0D2FA0134FA239B009C4206DA290079
:1027C000FF2010F09AF8FF28F4D0EDE728000FF072
:1027D000C6FFFA21C900654810F0F2F9041E18D0AE
:1027E00020000FF0BCFF01A960480FF0CFFFFA23D3
:1027F000DB00019A9A4214D171495C480FF088FFBE
:10280000051E15D0280010F0D9F8002817D1002493
:1028100024E0AC21714B584A8900594810F09CFAC9
:10282000DEE76F4B544A6F49554810F095FAE3E7DD
:102830006A4B514A6C49524810F08EFAE2E76B4BF2
:102840004D4A6B494E4810F087FAE0E7B021694BDA
:10285000494A89004A4810F07FFA0134FA239B0064
:102860009C4205DA280010F067F8FF28F5D0EDE764
:10287000002406E0604B404A6049414810F06CFA81
:102880000134FA239B009C4205DA280010F054F82A
:102890000028F5D0EEE700225949280010F0AAF8E8
:1028A000002849D1280010F089F8554B98424AD1A8
:1028B000280010F015FA00284CD1EA6B6B69A96B5F
:1028C0002869814201D19A4205D03C4B2A4A4D49A0
:1028D0002B4810F041FA280010F02EF8431C00D0CD
:1028E0009EE028000FF03BFF01A920480FF04EFFAB
:1028F000434B019A9A4200D09AE0434C1B4D210071
:10290000280010F05DF90FF02AFF01A928000FF050
:102910003DFF019BA34200D091E0154913480FF001
:10292000F7FE051E00D191E0280010F047F80028BE
:1029300000D093E000249FE0344B0F4A3449104804
:1029400010F00AFAAEE7334B0B4A33490C4810F04B
:1029500003FAADE7B321314B074A8900084810F06C
:10296000FBF9AAE7E8B3011010A3011050A8011069
:10297000F0EB0110C8A80110B0B401108A020000E9
:10298000C4A70110CCA501107102000060A80110BD
:102990007702000084A801107B020000A0A80110AB
:1029A00083020000B8A8011087020000E8A8011007
:1029B0008E020000FCA801109302000028A901105B
:1029C000A0A2011008A901109702000040A901105F
:1029D000A60200005CA90110AA020000F4A10110E7
:1029E00080A90110B5020000BA02000098A90110E8
:1029F000BB020000B0A90110C0A90110C60200006E
:102A0000D6060000CF020000DC050000D0A90110AE
:102A1000CA02000010AA0110CB0200002CAA01106B
:102A2000B4214F4B4F4A89004F4810F095F958E7B1
:102A30004E4B4C4A4E494C4810F08EF95DE74D4BD9
:102A4000484A4D49484810F087F966E7B8214B4B92
:102A5000444A8900444810F07FF965E7484B414AF1
:102A60004849414810F078F964E7474B3D4A4749E7
:102A70003D4810F071F90134FA239B009C4205DABD
:102A800028000FF059FFFF28F5D0EEE7002407E0FB
:102A9000BB213F4B334A8900334810F05DF90134C4
:102AA000FA235B009C4205DA28000FF045FF00285E
:102AB000F5D0EDE7EA6B6B69A96B2869814201D11A
:102AC0009A4206D0BC21334B264A8900264810F092
:102AD00043F928000FF030FF431C1ED128000FF0EF
:102AE0003EFE00212C4810F06BF8041E1CD02A4832
:102AF0000FF052FF431C1ED120000FF030FE01A941
:102B000025480FF043FE019B002B1BD122480FF0FC
:102B100043FF00281DD103B030BD114B114A1F499E
:102B2000114810F019F9D9E7144B0E4A1C490E4808
:102B300010F012F9DBE71B4B0A4A1B490A4810F058
:102B40000BF9D9E7194B074A1949074810F004F95E
:102B5000DCE7184B034A1849034810F0FDF8DAE7A0
:102B600008A90110B0B40110C4A701105CAA01109B
:102B7000D502000074AA0110DB020000F4A10110CC
:102B800098A90110E1020000B0A90110E6020000BE
:102B9000C0A9011028A9011050A80110F1020000DD
:102BA000F602000060A80110F90200008CAA0110D2
:102BB000FE020000A0AA01100103000070B582B05F
:102BC00006000200B249B34805F040FBC82005F0FA
:102BD00073F90500FA2005F06FF90400002D00D10B
:102BE000AEE0002C00D1B2E0AB480FF02BFE431C4E
:102BF00000D0B3E0A9480FF025FE002800D0B4E0D3
:102C0000A7480FF01FFE431C00D0B5E030000FF0C6
:102C100019FE002800D0B6E0A0480FF013FE0028EF
:102C200000D0B7E0701C0FF00DFE002800D0B8E017
:102C30009C480FF04CFE002800D0B9E09A480FF0F5
:102C400046FE002800D0BAE098480FF040FE002869
:102C500000D0BBE096480FF03AFE002800D0BCE060
:102C600094480FF034FE431C00D0BDE08F480FF0B5
:102C7000E9FD002800D0BEE08F480FF028FE0028B4
:102C800000D0BFE08D480FF0DDFD431C00D0C0E058
:102C90008B480FF0D7FD002800D0C1E0894B00938E
:102CA0003300894AC821280004F062F8280012F095
:102CB00079FE010020000FF0D7FD002806D0082182
:102CC000824B834AFF31834810F046F8FA212000F6
:102CD0000FF0CAFD844206D085217F4B7C4A490013
:102CE0007C4810F039F82900200011F0B1FD0028CF
:102CF00000D09DE079480FF03DFE431C00D09FE0DE
:102D000077480FF09FFD002800D0A1E075480FF034
:102D100031FE002800D0A3E072480FF093FD431C61
:102D200000D0A5E070480FF08DFD002800D0A7E08E
:102D3000280005F0D3F8200005F0D0F802B070BDEF
:102D40006A4B634AC121634810F006F849E7684BB3
:102D50005F4AC2215F480FF0FFFF45E7654B5C4AC1
:102D6000C6215C480FF0F8FF44E7634B584ACA217C
:102D700058480FF0F1FF43E75E4B554ACE215548C6
:102D80000FF0EAFF42E75C4B514AD42151480FF063
:102D9000E3FF41E7584B4E4AD9214E480FF0DCFF84
:102DA00040E7554B4A4AE0214A480FF0D5FF3FE73C
:102DB000514B474AE42147480FF0CEFF3EE74E4BC8
:102DC000434AE62143480FF0C7FF3DE74A4B404ADC
:102DD000E82140480FF0C0FF3CE7474B3C4AEB215D
:102DE0003C480FF0B9FF3BE7424B394AF0213948E4
:102DF0000FF0B2FF3AE7404B354AF42135480FF067
:102E0000ABFF39E73C4B324AF82132480FF0A4FFC0
:102E100038E7384B2E4AFC212E480FF09DFF37E74C
:102E20008021354B2A4A49002A480FF095FF35E7A3
:102E30008621324B264A490026480FF08DFF59E77C
:102E400012212C4B224AFF3122480FF085FF57E711
:102E500016212B4B1E4AFF311E480FF07DFF55E710
:102E60001821274B1A4AFF311A480FF075FF53E714
:102E70001C21204B164AFF3116480FF06DFF51E719
:102E800020211F4B124AFF3112480FF065FF4FE718
:102E900078B3011010A30110C4AA0110C49C011042
:102EA000E8AA0110F8AA011000AB01100CAB011048
:102EB0001CAB011030AB011044AB011060AB011032
:102EC0007CAB0110B0AB0110E09C0110CCAB011049
:102ED00040B40110C4A7011004AC01106CAC011087
:102EE00080A50110A4AB011088AC011024A301102F
:102EF00094A30110D8AA0110CCA5011040AC011078
:102F000078AC0110F0B583B0040002009D499E48E2
:102F100005F09CF9C82004F0CFFF0500FA2004F06A
:102F2000CBFF0600002D00D180E0002E00D185E00F
:102F30002300964AFA21300003F01AFF944930002A
:102F40000FF0E6FB002805D0924B934A9349944832
:102F50000FF002FF934930000FF0DAFB002805D094
:102F60008C4B8D4A90498E480FF0F6FE8F49300009
:102F70000FF0CEFB041E68D0C8223021280004F0D8
:102F8000B9FF230001220A2128000FF027FC0128A5
:102F900062D120000FF012FD0A2864D101A930008F
:102FA0000FF0F4FB019B002B64D120000FF0D7FB46
:102FB00001A930000FF0EAFB019B0A2B61D17C498B
:102FC00030000FF0A5FB041E62D0C822312128007A
:102FD00004F090FF23000A22012128000FF0FEFBDD
:102FE0000A285DD101A930000FF0D0FB019B0A2B0C
:102FF0005DD120000FF0B3FB01A930000FF0C6FB3C
:10300000019B142B5AD1624930000FF081FB071E3F
:103010005BD0C8220021280004F06CFF3B00012295
:10302000142128000FF0F4FB002459E08621614BA5
:10303000594AC9005A480FF08FFE76E75E4B564A50
:103040005E4957480FF088FE72E75D4B524A5D4972
:1030500053480FF081FE8FE75B4B4F4A5B49504866
:103060000FF07AFE95E75A4B4B4A5A494C480FF0FD
:1030700073FE93E7584B484A584949480FF06CFE95
:1030800093E7574B444A574945480FF065FE96E78A
:103090008C21554B404AC90041480FF05DFE94E732
:1030A000524B3D4A52493E480FF056FE9AE74C4B70
:1030B000394A50493A480FF04FFE9AE74E4B364A8C
:1030C0004E4937480FF048FE9DE73D4B324A4C4988
:1030D00033480FF041FE9CE72B5D312B0ED10134BC
:1030E000132C12D8092CF7D82B5D302BF7D0454B79
:1030F000294A45492A480FF02FFEF0E7434B264A5C
:10310000434927480FF028FEE9E73B00012201214F
:1031100028000FF063FB00281ED138000FF01FFBC2
:1031200001A930000FF032FB019B142B1BD11F496A
:1031300030000FF0EDFA0FF012FB01A930000FF094
:1031400025FB019B002B15D1280004F0C7FE3000A1
:1031500004F0C4FE03B0F0BD2E4B0F4A2E491048B8
:103160000FF0FAFDD9E7244B0B4A2C490C480FF01D
:10317000F3FDDCE7184B084A294909480FF0ECFD3C
:10318000E2E7C0462CB4011010A3011090AC01106E
:10319000F0EB0110A0AC0110F4B401103A040000EF
:1031A000C4A70110A0A2011041040000A4A20110B4
:1031B000689A011024A3011094A3011031040000A7
:1031C000B8A8011047040000B0AC01104E04000084
:1031D000C0AC011051040000F0AC01105604000016
:1031E00004AD01105D040000F4A1011024AD011034
:1031F000650400006904000040AD01107304000084
:10320000760400006CAD01108304000088AD01104D
:1032100087040000A4AD01108E0400009304000098
:103220009A04000010B58CB004000200A849A94817
:1032300005F00CF820000FF005FB002800D0BFE0DF
:103240000022A549A5480FF05DFD431C00D0BEE05B
:10325000A3480FF03CFB002800D0BFE0A1480FF0CE
:1032600036FB002800D0C0E09F49A0480FF050FA7C
:10327000041E00D1C0E02300012223219C480FF04E
:10328000ADFA20000FF06BFA002800D0BBE09448A4
:103290000FF0D8FA974998480FF03AFA041E00D177
:1032A000B8E02D220021684604F024FE22002D21E2
:1032B00068460FF043FD8E49684611F053FB002825
:1032C00000D0AEE063692269232A01D1002B06D029
:1032D000FB218A4B8A4A89008A480FF03DFD002273
:1032E000894985480FF00EFD431C00D0A1E0200065
:1032F0000FF035FA002284497F480FF003FD0028C3
:1033000000D09EE07B497C480FF002FA002805D0EF
:103310007E4B7B4A7E497B480FF01EFD72497D48FB
:103320000FF0F6F9041E00D1A0E0230029220121AC
:1033300079480FF053FA292800D09EE020000FF0C2
:103340000EFA0022704973480FF0DCFC431C00D0D9
:103350009AE001226C496F480FF0D4FC002800D09D
:1033600099E06E480FF06EFA002800D09BE06149AA
:103370006B480FF0CDF9041E00D19BE06369226910
:10338000292A01D1002B05D0664B5D4A66495D486C
:103390000FF0E2FC2D220021684604F0ABFD220074
:1033A0002D2168460FF0CAFC5B49684611F0DAFA35
:1033B000002800D085E020000FF0D1F90CB010BD3E
:1033C0005A4B4F4A5A494F480FF0C6FC38E7594B01
:1033D0004B4A59494B480FF0BFFC39E7534B484A19
:1033E000564948480FF0B8FC38E7504B444A544916
:1033F00044480FF0B1FC37E7524B414A524941482B
:103400000FF0AAFC37E7494B3D4A50493D480FF0C1
:10341000A3FC3CE74B4B3A4A4D493A480FF09CFC21
:103420003FE7FA214B4B364A890036480FF094FCAF
:1034300048E7FC213F4B324A890032480FF08CFCB0
:1034400055E70FF00DFF006811F034FC04000FF099
:1034500007FF02682100404804F0F8FEFE21334BCC
:10346000274A890027480FF077FC4BE7354B244A61
:103470003A4924480FF070FC57E7394B204A394944
:1034800020480FF069FC59E72A4B1D4A36491D4870
:103490000FF062FC5DE78221344B194AC9001948DC
:1034A0000FF05AFC5DE7214B154A314915480FF0E2
:1034B00053FC5CE7234B124A2E4912480FF04CFC98
:1034C0005CE72D4B0E4A2D490E480FF045FC72E784
:1034D00018B4011010A30110B4AD0110C0AD01105B
:1034E000CCAD0110D8AD0110A4A20110E8AD0110BF
:1034F00000AE0110F0EB011024AE01105CAE011023
:10350000E0B40110C4A7011094AE0110A0AC0110EA
:10351000FD030000D4AE0110E0AE011044AF011075
:1035200058AF011068AF011017040000CCA50110BE
:10353000CB030000D8AA0110CF030000D303000082
:10354000D5030000B8A80110D9030000E203000071
:10355000E503000030AE0110B8AE01100104000018
:103560000CAF0110050400000B04000078AC011042
:103570001404000016040000A4AF01101C04000095
:10358000F0B5D6464F464646C0B582B004000200AC
:10359000D149D24804F05AFE20000FF053F9D04828
:1035A00004F08AFC051E2ED0CE4C200004F084FCD2
:1035B0008046C5232B55CC4E30000FF0EDF921008D
:1035C00030000FF0FDFA0FF0CAF8694630000FF036
:1035D000DDF8009BA3421DD1C449C3480FF098F801
:1035E000041E1FD0BF4AFF21280004F083FC802165
:1035F00023000422890028000FF00AF9032818D1BB
:10360000002301931FE0BA4BBA4ABB49BB480FF0F5
:10361000A3FBC9E7CC21BA4BB64A8900B7480FF0E3
:103620009BFBD9E7B74BB34AB749B4480FF094FBBB
:10363000D8E7B64BAF4AB649B0480FF08DFBDFE78D
:10364000019B01330193019BB24A934209D8EB5C81
:10365000002BF5D0B04BA74AB049A8480FF07CFB2F
:10366000EEE7A04BEB5CC52B0FD120000FF077F8F5
:10367000AB499D480FF04CF8041E0DD020000FF010
:103680009DF900280FD100270BE1A64B994AA649C6
:103690009A480FF061FBE8E79A4B964AA34997488E
:1036A0000FF05AFBEAE7A24B924AA24993480FF067
:1036B00053FBE8E7D721A04B8E4A89008F480FF0D3
:1036C0004BFB01E19D4B8B4A9D498C480FF044FB1D
:1036D00013E09C4B874A9C4988480FF03DFB019BB7
:1036E00001330193019B534512D22300012204218F
:1036F00001A80FF073F80128E4D1019B9A0041461C
:103700008B50043620000FF059F98642E7D0E0E7ED
:1037100003234A469A439146D61920000FF04EF9EA
:10372000864214D10022002120000FF063F96D4A77
:103730000021280004F0DEFB2300012231002800D4
:103740000FF066F8012809D10023019317E07F4BA1
:10375000684A7F4969480FF0FFFAE3E7774B654A0B
:103760007C4966480FF0F8FAEEE7E1217A4B614AAE
:10377000890062480FF0F0FA019B01330193019B2D
:10378000BB4203D2EB5C002BF6D0EEE7EB199A4676
:103790004A464146180010F0E1FC00280CD1514A7D
:1037A000FF21280004F0A6FB0022002120000FF0DA
:1037B00021F90023019317E0684B4E4A68494F48AE
:1037C0000FF0CAFAEBE7E521664B4A4A89004B48FD
:1037D0000FF0C2FA13E0644B464A644947480FF0C1
:1037E000BBFA019B01330193019886420FD9281837
:1037F0002300012201210FF00BF80128E3D1200062
:103800000FF0DCF8019B01338342EAD0E3E74A463C
:103810004146504610F0A2FC00280CD1314AFF214D
:10382000280004F067FB0022002120000FF0E2F8DE
:103830000023019316E0494B2E4A4D492F480FF0C3
:103840008BFAEBE74B4B2B4A4B492C480FF084FA91
:1038500017E04A4B274A4A4928480FF07DFA019B56
:10386000033301930198864213D9281823000322B9
:1038700001210EF0CDFF331F019A9342EFD90328A7
:10388000E0D120000FF09AF8019B03338342E6D089
:10389000DFE74A464146504610F060FC002871D1EF
:1038A0000137242F75D80F4BDB1B99469B089A468E
:1038B0003E000022390020000FF09CF820000FF09D
:1038C0007DF8874200D0F5E6064A0021404604F024
:1038D00011FB0023019305E7FCB3011010A30110B5
:1038E0002606000025060000E4AF0110F0EB0110F1
:1038F000D8AF0110C4B401101F030000C4A7011009
:10390000F0AF0110F4A101103503000010B0011058
:103910003E0300002406000034B001104303000001
:10392000A0A201104CB00110470300004D0300009D
:1039300078AC01104F0300007CB00110A0B0011062
:1039400065030000B0B001106E030000D0B001109C
:10395000760300007E030000F0B0011004B10110F6
:103960008B03000080B101109CB101109603000090
:103970009A030000C0B10110A7030000D0B10110EC
:10398000A9030000104B114A114912480FF0E4F945
:1039900086E720000EF0E3FE0F4BEB5CC52B0BD14E
:1039A000280004F09BFA404604F098FA02B01CBCD0
:1039B00090469946A246F0BDED21084B034A890086
:1039C00004480FF0C9F9EBE704B10110C4B40110C9
:1039D000AE030000C4A70110250600004CB0011082
:1039E00070B582B004000200C049C14804F02EFC4A
:1039F00020000EF027FF00280CD1BE4C20000EF056
:103A0000CBFFBD4920000EF083FE041E0AD0002328
:103A100001931AE0D021B94BB94A4900B9480FF0D7
:103A20009BF9EAE7A821B84BB54AFF31B5480FF03A
:103A300093F9ECE7AE21B54BB14AFF31B1480FF035
:103A40008BF90FE0019B01330193F323DB00019A13
:103A50009A4217D223000422012101A80EF0BEFED3
:103A60000428E7D120000EF0A9FF019B01339B0041
:103A70009842E7D0D721A64BA14A4900A1480FF0B0
:103A80006BF9DFE70022002320000BF03FFB200052
:103A90000EF094FF002830D123000422012101A858
:103AA0000EF0B6FE042830D1019B002B35D1022246
:103AB000002120000EF09EFF002836D120000EF0DD
:103AC0007DFFF3235B01984237D102229149200008
:103AD0000EF090FF002838D020000EF06FFFF32387
:103AE0005B01984239D123000122012101A80EF087
:103AF0008FFE002839D1884D5FE0B421874B804A82
:103B0000FF3180480FF028F9C6E7B821844B7C4A82
:103B1000FF317C480FF020F9C6E7DC21814B784A61
:103B2000490078480FF018F9C1E7DE21734B744A59
:103B3000490074480FF010F9C0E7BE217A4B704A73
:103B4000FF3170480FF008F9BFE7E121774B6C4A6D
:103B500049006C480FF000F9BEE7C421724B684A77
:103B6000FF3168480FF0F8F8BDE7C821704B644A90
:103B7000FF3164480FF0F0F8BDE7CE215F4B604A9B
:103B8000FF3160480FF0E8F821E0E721694B5C4A1B
:103B900049005C480FF0E0F81EE0E921604B584A0C
:103BA000490058480FF0D8F81EE0D421624B544A1F
:103BB000FF3154480FF0D0F8043D032D18D9AE0062
:103BC0000022310020000EF015FF0028D5D1200082
:103BD0000EF0F4FE8642D8D123000422012101A870
:103BE0000EF016FE0428D8D1019BAB42E4D0DCE7EE
:103BF0000222524920000EF0FDFE002806D12000CE
:103C00000EF0DCFE002809D100253CE0DA213B4B18
:103C10003B4AFF313B480FF09FF8F0E7ED21484B5E
:103C2000374A490037480FF097F8EDE7E021334B6A
:103C3000334AFF3133480FF08FF830E0F0213D4B2D
:103C40002F4A49002F480FF087F82DE0F221344B1E
:103C50002B4A49002B480FF07FF82DE0E621364B28
:103C6000274AFF3127480FF077F80135A90049426C
:103C7000012220000EF0BEFE002821D120000EF00F
:103C80009DFE002824D1F323DB009D4228D2AE0004
:103C90000122310020000EF0ADFE0028C6D1200028
:103CA0000EF08CFE8642C9D123000422012101A816
:103CB0000EF0AEFD0428C9D1019BAB42D5D0CDE7B3
:103CC000EA210E4B0E4AFF310E480FF045F8D5E7BA
:103CD000F521124B0A4A49000A480FF03DF8D2E795
:103CE00020000EF03CFD02B070BDC0469CB3011038
:103CF00010A30110F0B1011008B20110CCA5011001
:103D000064B40110C4A70110F4A101100CB2011099
:103D10002CB2011040C3FFFF9707000098A90110C3
:103D200070B201108CB2011094B20110C0B2011037
:103D300078AC0110E4B2011020B30110A0E1FFFF44
:103D400028B3011010B5040002000D490D4804F01D
:103D50007DFA2000FEF7A4FB2000FEF769FC20009E
:103D6000FEF72CFF2000FFF7CDF82000FFF75AFAEE
:103D70002000FFF705FC2000FFF732FE10BDC04613
:103D800064B3011010A3011010B58300084A9446D3
:103D900063441C6840226240C024144080225201C7
:103DA00013431C60C000034B9C466044416010BD3F
:103DB00004C001400040014080000B4B9C46604421
:103DC00000290DD00823002A0CD0042213430268D6
:103DD00053400C221340802252011043036070476D
:103DE0000023F0E70022F1E704C0014010B50123F1
:103DF0008340D0221206936293610521FFF7C4FF2E
:103E000010BD0000EFF3108072B6034B1B68002B4F
:103E1000FBD0BFF35F8F70472C0100D0BFF35F8FE3
:103E2000024B00221A6080F3108870472C0100D0EA
:103E3000F8B506000C001500FFF7E4FFE308F718DB
:103E4000F15C07222240012393400B4205D1DBB2F3
:103E50000B433B70FFF7E2FFF8BD2100280001F0A3
:103E60009BFAF0B583B00600019114001F00FFF724
:103E7000C9FFBC420ED8E308F518F35C07212140C6
:103E800001228A401A4201D00134F2E7D2B21A4329
:103E90002A7001E001246442FFF7C0FF002C02DB1E
:103EA000200003B0F0BD019B002BF9D0089801F071
:103EB00073FA0000034B1B6802201840431E984110
:103EC000C0B2704700C0064000231F2B08D8054A27
:103ED0009A189200BFF35F8F002111600133F4E75D
:103EE0007047C04640000034054A1078431CDBB2DE
:103EF0001370172B02D9130010221A707047C04696
:103F0000400B002000B583B00100044B00931F2339
:103F100018220348FFF7A5FF03B000BD08B5011044
:103F20000C1E002070B504000D00062001F04EFBB1
:103F3000C000290002F09CFFC60908D00E4B9E422B
:103F400017D87F23184001303500460800E00125CE
:103F50006562A6622C348020800104430023236024
:103F6000062001F033FB8000A901891902F080FFCF
:103F700070BD0026014DEBE7FEFF0000FFFF0000D3
:103F8000002909D00A22064B9C466044434258410E
:103F90004000044BC252704780225200F3E7C046F3
:103FA0000080FCBF1824002070B505000C0006201E
:103FB00001F00CFB002829D0164B9D4227D080220F
:103FC000D203154B1A60154B1A60154B9B681100F4
:103FD0009943FAD100212800FFF7D2FF21002800E1
:103FE000FFF7A0FF2C002C34E96A60224A406E21C2
:103FF000114080225201224311600A4B2B6380231F
:104000009B01234310221A600323AB6470BD8022FE
:104010001204D6E70080034000E0004000F00040BA
:1040200000C000400103000010B50C00CB688342C3
:1040300007D108000B699847002809D020686168FB
:1040400010BD9021054B064A4900064801F086F94B
:104050000023E36000200021F2E7C04624B50110F0
:1040600024B8011038B5011070B505000C00080027
:1040700000F066FD200000F06DFE0849200000F011
:10408000ADFDFFF731FF064B9C4660448000686041
:104090002C75A400034BE55070BDC046AD43001025
:1040A00040000034C02300200A4B1A68EFF310814F
:1040B00072B61368002BFCD0BFF35F8F054B1B68F3
:1040C000BFF35F8F00221A6081F3108840BF002089
:1040D00000217047D823002010B5002922D00368A2
:1040E0001B7B99421ED8174B9C466144090183688B
:1040F0009C4661440C684968002A19D003681B7B00
:104100009A4215D883680F488446624412019A186F
:1041100010685368020001208B4201D80ED00020A5
:10412000C0B210BD084B094A3B21094801F016F9FD
:10413000054B064A3B21064801F010F9A242EFD890
:10414000EDE7C046FFFFFF0F7CB50110A0B70110DF
:1041500038B5011010B500291ED0037B99421BD839
:104160004B005B18033B0468A4466344002919D044
:10417000002A1DD0914221D0002A25D0047BA242E2
:1041800022D80468500080180338201881701978EC
:1041900000291FD11A7010BD104B114A6921114816
:1041A00001F0DCF8104B114A70310E4801F0D6F8DE
:1041B0000F4B0E4A71210B4801F0D0F80D4B0B4A02
:1041C0007221084801F0CAF8044B054A69210548E4
:1041D00001F0C4F841701A70DDE7C046B0B50110B7
:1041E00060B70110CCB5011020B601106CB70110FA
:1041F0002CB6011038B6011070B506000D00140081
:10420000002914D0002A14D08068736898470028C9
:1042100006D0220029003000FFF79CFF280007E0AD
:104220002A0021003000FFF795FF200000E0100079
:1042300070BD0800FCE70000F0B583B005000092F7
:1042400001930AAB1C780BAB1F78002C26D00368B7
:104250005A7B944207D10123002B19D1002C3BD16A
:10426000200003B0F0BD002C0CD01A7B944209D87A
:104270001A6863001B19033BD3189B78002BEBD003
:104280000123E9E73E4B3F4A69213F4801F066F8C8
:104290003E4B3F4A65213F4801F060F803689C7B34
:1042A000002CDBD012D01A7B94420FD86200121976
:1042B000033A19688C46624451789973002900D1F9
:1042C000D9730023937053701370C7E72C4B2D4A9A
:1042D00069212D4801F042F8002C3AD02B681B7B55
:1042E0009C4236D82C4BE3181B01AA6894466344C1
:1042F000009A1A60019A5A60089A9A60099ADA60DC
:104300002E68002C2BD030D0337B9C422DD86300FC
:104310001B19033B32689446634400229A705A701A
:104320001A70717B22003000FFF766FF70738442C1
:1043300000D095E7287D009A019B00F097FC061EAF
:1043400001D0002F17D00C9B002B00D188E71E70E6
:1043500086E7124B124A3B210E4800F0FFFF114B3B
:10436000114AA621084800F0F9FF054B054A6921CA
:10437000054800F0F3FF2868210000F0E5FEE2E7C1
:10438000B0B5011060B70110CCB5011050B60110E6
:10439000D8B7011038B50110FFFFFF0F7CB5011031
:1043A000A0B7011034B5011080B70110F0B5DE469A
:1043B00057464E464546E0B58BB00990002308931A
:1043C0008200B34BD658370052E0B24BB24A3D217F
:1043D000B24800F0C3FFB24BB24A3B21B24800F0F2
:1043E000BDFF002901D1002869D10021404600F01D
:1043F000A1FEA04219D12A686B6806920793AB68A8
:104400009846EB689A464346002B14D0002C18D0EF
:104410003B681B7B9C4214D8631EFA68D35C0893EC
:104420001B0218433861002015E0A04BA04A8C21E4
:104430009D4800F093FF9F4B9D4A90219A4800F0C1
:104440008DFF974B9C4A4021974800F087FF00233F
:104450009A46984600207B68BFF35F8F00221A605F
:1044600086F310884346002B32D1002800D107E1A3
:1044700000F072FB02000B1EA7DB0020002106905B
:1044800007917868EFF3108672B601680029FCD0B6
:10449000BFF35F8F396888464C7B002CD7D09AD009
:1044A000097B8C4297D8854965182D01B9688C46DF
:1044B000654428686968801A9941002991DD2A6855
:1044C0006B68099800F0D2FB00239A469846C2E731
:1044D000089B1B022343994651461800C04705001C
:1044E0000E007A68EFF3108B72B6136859424B4195
:1044F000D9B2002BF9D1BFF35F8F002E26DB002E3F
:1045000052DD3B69002B53D04B4572D100F024FBA8
:1045100002000B1E73DB0100180052197341984210
:1045200002D804D1914202D901225242D317002B62
:104530006BDB0021049101310391029451460191FA
:10454000414600913800FFF777FE49E03B69002BB8
:10455000D5D04B451CD1069A079B10001900521B61
:10456000B341994202D804D1904202D90122524269
:10457000D317002B12DB0021049101310391029427
:1045800051460191414600913800FFF755FE27E062
:104590004B4B474A9F21444800F0E0FE3D4B3E4ACA
:1045A0003D213E4800F0DAFE002E01D1002DA8D1B9
:1045B0003A68002C45D0537B9C422CD10121002924
:1045C0003FD1D37B002B42D1D473002C52D03B6817
:1045D0001B7B9C424ED8FA68013C135D0133135596
:1045E00000233B617A68BFF35F8F13608BF3108801
:1045F0003EE7334B2E4AA2212B4800F0AFFE254B5D
:10460000254A3D21254800F0A9FE224B224A3D21A2
:10461000224800F0A3FE002C0DD0137B9C420AD848
:1046200063001B19033B1068844663449B78002B8E
:10463000C5D00121C3E7234B234A6921234800F059
:104640008DFE234B234AF721204800F087FE002BE4
:104650000AD0117B8B4207D85900CB18033B116855
:104660008C4663445C70AFE7164B174A69211748C4
:1046700000F074FE0A4B104A40210B4800F06EFE19
:104680000BB03CBC90469946A246AB46F0BDC04636
:10469000C0230020A08F011048B70110BC8F01106B
:1046A0007CB50110A0B7011038B5011078B6011023
:1046B000F0B7011090B60110ACB70110FFFFFF0F6B
:1046C0009CB60110B0B5011060B70110CCB5011057
:1046D000D8B6011090B7011010B50A4B5B68002BDB
:1046E00004D00A21084800F065FB10BD054C2300EA
:1046F000064A1021206800F03DFC03212000FFF74E
:10470000B3FCEEE7440B0020D8230020D940001072
:1047100010B5064B5B68002B01D0044810BD044B5C
:10472000044A5C21044800F019FEC046440B0020F6
:10473000FCB60110C0B7011038B50110F0B5DE4667
:1047400057464E464546E0B58BB0804616001F00E2
:10475000149B9A46159B994616AB1B789B461F23C4
:1047600002AA9446634400221A7032E0002809D05D
:1047700042461268127B904204D8421E4146C968E4
:104780008A5C48E0434B444A4021444800F0E6FD3F
:104790000798002B75D05B46002B72D04946D04756
:1047A00004000D0003000B4300D171E0002946DB3B
:1047B00000F0D2F906000F1E55DB36196F41B942E1
:1047C00002D804D1B04202D901267642F717002F51
:1047D0004FDB43465A68EFF3108472B613685942B0
:1047E0004B41D9B20791002BF8D1BFF35F8F1F3334
:1047F00002AA9446634404930023039302934B4616
:1048000001935346009332003B004046FFF714FDEE
:10481000031EABD1020041464968BFF35F8F0025FC
:104820000D6084F31088002B29D01F2302A98C4629
:1048300063441B78002BABD112021043A9E732006E
:104840003B00361BAF41BB4202D804D1B24202D971
:1048500001267642F717002FBBDA114B114A3D2192
:10486000114800F07BFD0E4B0E4A3D210E4800F032
:1048700075FD0B4B0B4A3D210B4800F06FFD0120ED
:1048800040420BB03CBC90469946A246AB46F0BDB8
:104890000798F6E77CB50110ACB7011038B50110E8
:1048A000A08F011048B70110BC8F0110F8B50400AB
:1048B0004268EFF3108572B6136858424341D8B28C
:1048C000002BF9D1BFF35F8FCBB22268567BB34286
:1048D0001BD10120002847D0206988422BD0090A2B
:1048E000C9B2002B2DD02068007B834229D8581EE6
:1048F000E668305C88422AD000206368BFF35F8F8F
:1049000000221A6085F31088F8BD002B0DD0167BAD
:10491000B3420AD85E00F618033E1768BC466644E8
:10492000B678002ED6D00120D4E7124B124A692166
:10493000124800F013FD124B124AFE21124800F0FB
:104940000DFD124B124A40210F4800F007FD1900DF
:10495000100000F0F9FB0028CFD106210D4B094AC9
:10496000FF31094800F0FAFC23698B42C5D10023CE
:104970002361C2E7B0B5011060B70110CCB50110DA
:1049800020B701100CB8011038B501107CB501102A
:10499000ACB7011044B70110F0B585B007000C9E0C
:1049A0001100194301D101220023B7600A99316136
:1049B000326073600B997161D81701004240140096
:1049C00043401D00241A8D4100F0C6F802000B1E62
:1049D0001BDB0100180012196B41984202D804D168
:1049E000914202D901225242D317002B13DB01213D
:1049F000029101960B4900913800FFF79FFEF0608D
:104A0000C317181AC00F05B0F0BD074B074A3D2168
:104A1000074800F0A3FC044B044A3D21044800F081
:104A20009DFCC04629400010A08F011048B701101E
:104A3000BC8F011070B584B005000C00FFF768FE54
:104A4000002302930193194B00932A002300FFF7E0
:104A500075FE061E12DC164B5B6A9C4209D8144A8E
:104A6000926AAA4208D29C4201D0012002E00020B2
:104A700000E0002004B070BD0120FBE720BFFFF77D
:104A800047FE3100FFF712FF094B5B6A9C4209D8D1
:104A9000074A926AAA4207D29C4201D00120E9E764
:104AA0000020E7E70020E5E70120E3E7A940001048
:104AB0000040054070B5EFF305833F2018401038E3
:104AC000EFF3108472B6194B1B68002BFBD0BFF3B9
:104AD0005F8F012319008140154A5163154A1278EE
:104AE0001500C5402B4214D0114B5D6A8300124E55
:104AF0009B599D4206D38300104D5B598A430D4953
:104B00000A7007E00A4A031D9B0099589950002338
:104B100000E00023BFF35F8F044A0021116084F39B
:104B20001088002B00D0984770BDC046280100D0E7
:104B30000040054017240020E4230020FC1C002036
:104B400010B50100024A0348FFF772F910BDC046D4
:104B500048B8011012240020044B5B6A034A906A93
:104B60001900536A9942F9D17047C0460040054088
:104B7000074B5B6A8B4204D2054B5B6AFAE7044B36
:104B80005B6A8B4203D1024B9B6A8342F7D3704727
:104B90000040054070B504000D00FFF7DDFF020086
:104BA0000B0020002900801859418B4202D804D103
:104BB000824202D901204042C117002902DBFFF7DF
:104BC000D7FF70BD024B034A3D21034800F0C6FBEE
:104BD000A08F0110DCB80110BC8F011070B504006B
:104BE0000D00EFF3108672B61B4B1B68002BFBD039
:104BF000BFF35F8F002D1CD0200000F067FD174B26
:104C000083420BD01900200000F068FD0121200034
:104C100000F04CFD0123A340114A1360A400114B86
:104C2000E550BFF35F8F0C4B00221A6086F31088AB
:104C300070BDA2000B4B0021D1500122A2400A49B5
:104C40000B7893430B700549200000F071FD0021A3
:104C5000200000F02BFDE4E7280100D0B54A001049
:104C600038600540FC1C002017240020F0B5DE460B
:104C700000B584B00400150001921E000293FFF7F6
:104C80006BFF03958E4202D84ED185424CD9EFF38B
:104C9000108B72B6274B1B68002BFBD0BFF35F8FC6
:104CA000254A17780125A540EBB23B431370234BEF
:104CB0005D63221D92000199D150A2002049029803
:104CC00050501B6A2B4212D11C4B1B6C2B4208D03C
:104CD0000020BFF35F8F174B00221A608BF3108800
:104CE00023E0184B184AC121184800F037FBFFF7A2
:104CF00033FF8E4214D802D1039B834210D80E4B4F
:104D00001B78BB420ED00D4B1D625D631F2004401B
:104D10000123A3400E4A1360074B1F701E38D8E7CB
:104D20000020D6E70120D4E7012004B004BC93465C
:104D3000F0BDC046280100D01724002000400540E7
:104D4000E42300206CB80110F4B8011090B80110F1
:104D500080E200E010B5EFF3108472B60A4B1B68D6
:104D6000002BFBD0BFF35F8F01238340074A136200
:104D700007490A789A430A70BFF35F8F024B0022FB
:104D80001A6084F3108810BD280100D0004005404F
:104D90001724002070B504000E001500FFF7A4F8DA
:104DA0000100200000F006F8A680E580BFF35F8FC9
:104DB00070BD0000024B9C46614489000160704751
:104DC0004000003470B504000D00FFF78DF80100BD
:104DD0002000FFF7EFFFFF2323716571BFF35F8FA3
:104DE00070BD10B50021FFF7EDFF10BD10B5FF211C
:104DF000FFF7E8FF10BD0000034B9C4661448900AB
:104E00000160BFF35F8F70474000003410B50400AD
:104E10000120FFF777F801002000FFF7EDFF10BD3C
:104E200010B500291ED0037B99421BD84B005B189C
:104E3000033B0468A4466344002919D0002A1DD00E
:104E4000914221D0002A25D0047BA24222D80468B6
:104E500050008018033820188170197800291FD15C
:104E60001A7010BD104B114A6921114800F076FAF2
:104E7000104B114A70310E4800F070FA0F4B0E4A79
:104E800071210B4800F06AFA0D4B0B4A7221084859
:104E900000F064FA044B054A6921054800F05EFA07
:104EA00041701A70DDE7C046B0B5011068BB011053
:104EB000CCB5011020B6011074BB01102CB6011046
:104EC00038B6011070B506000D001400002914D08A
:104ED000002A14D0806873689847002806D0220002
:104EE00029003000FFF79CFF280007E02A0021007E
:104EF0003000FFF795FF200000E0100070BD0800B3
:104F0000FCE7000010B50023437301338373037B78
:104F1000C3730123027B9A4214D9002B0CD0027B6D
:104F2000934209D85A00D218033A01688C46624469
:104F30000133DBB25370EDE70B4B0C4A69210C488F
:104F400000F00CFA002A09D0924207D801685300F9
:104F50009A18033A8A180023537010BD024B034A73
:104F60006921034800F0FAF9B0B5011068BB0110DF
:104F7000CCB5011010B5017342608360FFF7C2FF2A
:104F800010BD000070B50400081E00D170BD0029DE
:104F900034D0237B994231D84B005B18033B226805
:104FA000944663445A78002AF0D02DD0237B9A424D
:104FB0002AD853009B18033B21688C4663445D78D4
:104FC00000215970002825D0237B984222D8430025
:104FD0001B18033B21688C46634400215970010073
:104FE0002000FFF76FFF060029002000FFF7CAFF2F
:104FF000020031002000FFF765FFC7E7084B094AB0
:105000006921094800F0AAF9054B064A69210648BA
:1050100000F0A4F9024B034A6921034800F09EF90D
:10502000B0B5011068BB0110CCB5011070B505001A
:105030000C001600002928D02DD0037B99422AD8D5
:105040004B005B18033B0268944663445A78002A7D
:1050500027D19A78002A2AD11978FFF793FF030005
:10506000002E03D0EA7B002A27D1EC73002B37D126
:10507000002C49D02B7B9C4246D82B6861000C1930
:10508000033C1C190023637070BD224B224A382157
:10509000224800F063F9224B224A6921224800F09D
:1050A0005DF9224B1C4A3A211C4800F057F9204B6D
:1050B000194A3B21194800F051F9002A0AD0297BEE
:1050C0008A4207D851008A18033A29688C466244FC
:1050D0005470CAE7124B134A6921134800F03EF995
:1050E000002B0BD02A7B934208D843001B18033BAC
:1050F0002A689446634400229A70B9E7084B094A2B
:105100006921094800F02AF9054B064A6921064839
:1051100000F024F9A8BA011088BB0110B0BA011040
:10512000B0B5011068BB0110CCB50110F4BA011084
:105130001CBB011070B504000A00457B2900FFF775
:1051400075FF6073280070BD70B50400002966D03B
:10515000437B8B420ED0002911D0037B99420ED89D
:105160004B005B18033B0268D0188378002B0CD1EE
:10517000002055E00121FFF7DDFF012050E0294B21
:10518000294A6921294800F0E9F8002B1FD0227B29
:1051900093421CD825685A00D318033BEA18EB5CED
:1051A0008B421AD0002B1BD0227B934218D85A0076
:1051B000D318033B2268D21853788B4216D0002BA9
:1051C000F0D11B4B1B4A67211B4800F0C7F8154B59
:1051D000154A6921154800F0C1F84378137007E0BB
:1051E000104B114A6921114800F0B8F84378537008
:1051F00000238370437001222000FFF717FF020095
:10520000617B814205D02000FFF75CFE60730120C6
:1052100006E00A4B074A6D21074800F09FF800207E
:1052200070BDC046B0B5011068BB0110CCB501100F
:1052300040BB01109CBB0110B0BA011048BB01106B
:1052400070B5264B264A1A60264B274A1A60274B10
:105250009A68254B9343FAD1254C264B9C4202D2A7
:1052600008CC9847F9E700F031F91E4B224A1A6042
:105270001E4B9B68DB43DB01FAD1204B40229A672F
:105280005A671A67DA661E4C03E02000FFF7A9FD93
:1052900008341C4B9C4206D26379002BF5D02000C9
:1052A000FFF7A4FDF4E7184CA168184DC0222800B0
:1052B00002F026FEA560FAF7D6FF002800D000BE57
:1052C000FEF702FE00F096FBFFF706FA104C01E035
:1052D00008CC98470F4B9C42FAD370BD00E00040C9
:1052E000BFCDFBFE00F00040FE7F3C0000C0004050
:1052F000B8160020C8160020FFFFFF0100F0014093
:10530000B0160020B816002000ED00E000000020DC
:10531000C8160020D016002000BEFDE703000A4A90
:105320001268002A08D0084A1068C318074A9A422F
:1053300006D3054A13607047034A05491160F2E736
:1053400001204042F7E7C046A81F002000000420CB
:10535000EC26002010B5FFF7DFFF000010B582B08B
:105360000C001900002A0CD0084B002A0BD0019227
:10537000009323000200064802F068FF0120FFF7B7
:10538000CBFF044BF1E7034AF1E7C046B4BB011081
:10539000C4BB01100C8E01100FB400B583B00848D7
:1053A00002F024FF049B002B07D005A901911800EF
:1053B00002F02AFF034802F019FF0120FFF7ACFFBB
:1053C000F4BB0110D4A00110F8B5DE4657464E4696
:1053D0004546E0B505000F0092461E000A9B9E421E
:1053E0004ED3330E994636020A9A002330004946BE
:1053F00001F080FD80466C006419A4002E4B9C4691
:1054000064446368834200D260602B1FDBB29B461A
:10541000012B3BD9C0239B012343802212011A6038
:10542000AB00264A9958002905D0506901F020FDAB
:1054300001300138FDD153465A0123685A40E02318
:105440001A4080235B0123431A605A46012A28D957
:1054500080239B012343802212011A60434663602C
:10546000424600233000494601F044FDAD00134B95
:10547000585101203CBC90469946A246AB46F8BD27
:105480000F4B104A2D211048FFF768FF012FC1D1A3
:10549000C0239B01234303221A60A368DB07FCD5CA
:1054A000C9E72168794003220A401A60A3680122F3
:1054B000BA401A42FAD0CBE700800040101F00200B
:1054C00004BC011068BC011018BC011030B583B0D9
:1054D0000C2000F027FBFEF7EDFC00280DD0002388
:1054E000092B05D899002D4A2D4888500133F7E73C
:1054F0002A4B2C4A5A6203B030BD2B4B00229A67CC
:1055000000F07EFB294B01221A60274B5B6C012BBC
:10551000FBD1274B03221A60234B9B6B012BFBD142
:10552000022400940533234A0121234800F06EFA37
:1055300000940523214A0121214800F067FA214BFC
:105540000093002202210420FFF73EFF1E4D00952C
:105550002B00002201210520FFF736FF104C00949C
:105560002300002200210720FFF72EFF00942300D4
:10557000002200210820FFF727FF0A4B0093230099
:10558000002200210920FFF71FFF00952B000022B9
:1055900000210620FFF718FFADE7C046101F0020CE
:1055A000006CDC021BB70000008000403CB00040F3
:1055B00030B00040002F68590080024000389C1C29
:1055C00000C00240001BB700405973078000014B28
:1055D000C0587047101F0020074B9B681030800098
:1055E0001950BFF35F8FBFF35F8F044B0021196029
:1055F00082F310887047C04600ED00E0240100D01F
:1056000010B5091A04394808090B05D14005400DA9
:10561000044B184380B210BD034B044A8C2104484C
:10562000FFF79CFE00E0FFFF78BC011060BE011098
:1056300088BC011010B5091A04394C08090B08D1AF
:105640004905490D064A11430180064B2343438017
:1056500010BD054B054A94210548FFF77FFEC04663
:1056600000F0FFFF00F8FFFF78BC01106CBE0110D6
:1056700088BC011001238340034A10681840431E70
:105680009841C0B27047C04600E100E0002904D054
:10569000034B1860034B18607047034B1860FBE71F
:1056A00080E200E000E100E080E100E010B50123CD
:1056B00083401800FFF7EAFF10BD0000012383407C
:1056C000014A13607047C04600E200E0024B9B684D
:1056D00010308000C058704700ED00E070B5040045
:1056E0000D00EFF3108672B60C4B1B68002BFBD03D
:1056F000BFF35F8F2000FFF7E9FF094B984201D00D
:10570000A84205D1320029002000FFF765FF70BDD7
:10571000044B054A70210548FFF720FE240100D004
:10572000CD010010D0BC011044BE011088BC011096
:10573000F0B5CE46474680B583B006000D00EFF3C6
:10574000108872B6574B1B68002BFBD0BFF35F8FDE
:10575000554B9A6834001034A300D758534B9F42DE
:1057600007D0AF4200D19BE00197514BFB1A2F2B82
:1057700009D9424639003000FFF72EFF03B00CBCB8
:1057800090469946F0BD3000FFF774FF8146002136
:105790003000FFF78BFFBFF35F8FFAF764FD00283F
:1057A00001D0844219D10123019C9C43230040492C
:1057B0005B1A5B4148495943090D49B20022A3686D
:1057C000AB4212D00622A256002A0DDB53009B18D2
:1057D0009B002200364CE418F1E72021354B364A75
:1057E000FF313648FFF7BAFD2200AB4251D1062502
:1057F0006557002D39DB6B005B199A002C4B9B1809
:105800009A68A260DA79E27106229A56A2719B79AF
:105810005BB2002B10DABD200002A0806B005B1988
:105820009B00234AD318264A11789971157049466E
:105830003000FFF73BFF9CE7201D6B005B199B00CE
:105840001B4A9B181A1D9B88D90A1C2907D1590588
:105850004915023149005118FFF7D2FEDDE7194B17
:10586000194A9A211548FFF779FD00280CD1002A22
:1058700008D0FF239371154B9380114B1A78A271B6
:105880001970D4E7094FF8E7201D1149FFF7D2FE40
:10589000CDE7AA210F4B084A49000848FFF75EFDF3
:1058A000024F66E7240100D000ED00E0CD010010BA
:1058B0006C0B0020E4BD011094BE011088BC0110E7
:1058C00014240020CCBD011084BE011000BDFFFFD8
:1058D000A60B002008BE0110AAAA000010B50323E1
:1058E00004009C43064A9446644422681840C00061
:1058F000FC3383409A43130081400B43236010BD67
:1059000000E400E0F8B50400012606432D4BF31A2D
:105910002F2B28D8FAF7A7FC00282BD0EFF31087FD
:1059200072B6294B1B68002BFBD0BFF35F8F23009F
:10593000244D5B1B5B412E4D5D432D0D6DB2234B02
:105940009B6880001B58B3421BD00022032A32D828
:1059500053009B189B001B49CB189B795BB2AB4251
:105960001FD00132F2E77221194B1A4AFF311A484F
:10597000FFF7F4FCBA21194B164A49001648FFF705
:10598000EDFC124B9B68164A1A50164B1A78A271FE
:105990001D70BFF35F8F0C4B00221A6087F31088D5
:1059A000F8BD08005300991889004118FF268E7130
:1059B0000D4A8A80E9E786210C4B064AFF310648EA
:1059C000FFF7CCFC6C0B0020240100D000ED00E0C0
:1059D00010BE0110A8BE011088BC011038BE011015
:1059E000CD0100101424002000BDFFFF40BB0110BA
:1059F000AAAA000010B500241F2C05D88021200081
:105A0000FFF76CFF0134F7E710BD0000F0B5CE469C
:105A100000B504000E0091461F000C2001F028FA8A
:105A2000050043011B1A9901C91AC9000918890107
:105A3000484601F01DFA0200103A98235B009A4292
:105A400033D87B1E062B36D8069B013B062B32D85B
:105A5000069B9F4235D34B461A09AA4237D33F04CF
:105A6000069B1D032F432368002B36DB234B9C42F0
:105A700041D080256D01224B1D60224B1D60224AC2
:105A800092682B009343FAD12660A060221DC023A8
:105A90009B01134321221A602268002AFCDAE76086
:105AA00008221A6004BC9146F0BD184B184A162112
:105AB0001848FFF753FC184B154A19211548FFF7F2
:105AC0004DFC164B124A1F211248FFF747FC144B9E
:105AD0000F4A22210F48FFF741FC22683F23134061
